:100000000C943E000C945B000C945B000C945B0021
:100010000C945B000C945B000C945B000C945B00F4
:100020000C945B000C945B000C945B000C945B00E4
:100030000C945B000C945B000C945B000C945B00D4
:100040000C945B000C945B000C945B000C945B00C4
:100050000C945B000C945B000C945B000C945B00B4
:100060000C945B000C945B000C948D020C945B0070
:100070000C945B000C945B000C945B0011241FBE7D
:10008000CFEFD4E0DEBFCDBF11E0A0E0B1E0E0ED06
:10009000F5E002C005900D92AC31B107D9F721E02F
:1000A000ACE1B1E001C01D92A034B207E1F70E94BB
:1000B000FC000C94E6020C94000090913F01E92FA3
:1000C000F0E0E45EFE4F808381E0890F983019F004
:1000D00080933F01089510923F0108954298E09166
:1000E0003E01F0E0EB5EFE4F80818093BB0080918B
:1000F0003E0191E0980F863019F090933E010895EB
:1001000010923E0108959C01ADE7B0E00E94D70235
:10011000611571058105910509F40895000000003D
:1001200000000000000000000000000000000000CF
:1001300000000000000000000000000000000000BF
:1001400000000000000000000000000000000000AF
:10015000000000000000000000000000000000009F
:10016000000000000000000000000000000000008F
:10017000000000000000000000000000000000007F
:100180000000000000000000000000006150710944
:1001900081099109BDCFE8E1F1E080E026ED80938F
:1001A0007C0090917C00906290937C0020937A0078
:1001B00090917A0094FFFCCF9091790091938F5F9A
:1001C000843069F70895CF93DF930E943402CCE125
:1001D000D1E04A81698188810E9443024D816C810E
:1001E0008B810E94430248856F818E810E94430269
:1001F000DF91CF910C94400285B7806885BF85B7A9
:10020000806885BF81E090E00E9483001AB88FEF7C
:100210008BB987B1877087B988B1886F88B984B185
:10022000807E84B985B18F6185B981B18F7181B9C3
:1002300082B1806E82B93A9A42980E941A026EE6A2
:1002400070E08DE590E00E94740280E10E947D02E2
:100250007894C0E04C2F61E081E00E9458028EE16A
:1002600090E00E948300CF5FC233A1F7C0E04C2F23
:1002700063E083E00E9458028EE190E00E948300D8
:10028000CF5FC233A1F7C0E04C2F66E086E00E944A
:1002900058028EE190E00E948300CF5FC233A1F745
:1002A00010E009E1C1E0D0E01A3090F00E94E300D4
:1002B0000E94CB0010E0E5E2F1E030E020E090E0C9
:1002C00081918111B2C0211105C089B1817023C013
:1002D0001F5FF1CF213021F489B1869581701BC059
:1002E000223029F489B182FB882780F914C0233099
:1002F00029F489B183FB882780F90DC0243021F4CB
:1003000089B18295817007C0253009F04BC089B151
:1003100085FB882780F9D901A050BF4F4C91481721
:1003200029F08C93DF0111970C9391E02F5F3F4FE1
:100330002531310529F6992381F1E0E0F1E090E0E3
:1003400080E020E030E040E0582F6191662339F0F2
:10035000BE01082E01C0660F0A94EAF7462B67819A
:10036000662339F0BE01052E01C0660F0A94EAF734
:10037000362B6785662331F0BE0101C0660F5A95A2
:10038000EAF7262B019688309105F1F64093150186
:100390003093160120931701429A81E090E00E9469
:1003A000830082CF263029F489B186FB882780F923
:1003B000B2CF273029F489B1881F8827881FABCF97
:1003C000283011F486B196CF293011F486B199CF37
:1003D0002A3011F486B19CCF2B3011F486B1E5CFD1
:1003E0002C3011F486B1E8CF2D3011F480B190CFCC
:1003F0002E3011F480B1D9CF2F3011F480B1DCCF81
:10040000203111F483B162CF213111F483B165CF72
:10041000223111F483B167CF233111F483B16ACF54
:10042000243109F078CF83B16CCFDF01119781506F
:100430008C937CCF249A2C9A259A279A2D9A8CB546
:1004400080648CBD8CB580618CBD8CB58C608CBD9E
:100450008DB581608DBD8CB583608CBD08958EBDDA
:100460000DB407FEFDCF089580E00E942F0280E0CA
:100470000E942F0280E00E942F0280E00C942F0245
:100480008FEF0C942F021F93CF93DF93182FD62F4B
:10049000C42F8FEF0E942F02812F0E942F028D2FD9
:1004A0000E942F028C2FDF91CF911F910C942F026D
:1004B0001F93CF93DF93C82FD62F142F0E9434029F
:1004C000412F6D2F8C2F0E944302412F6D2F8C2FB7
:1004D0000E944302412F6D2F8C2F0E944302DF9117
:1004E000CF911F910C94400290933D0180933C0169
:1004F00070933B0160933A010895F894880F8093BC
:10050000BA0085EC8093BC0078940895F89410921A
:10051000BC001092BA00789408951F920F920FB603
:100520000F9211242F933F934F935F936F937F9379
:100530008F939F93AF93BF93EF93FF938091B900F5
:10054000887F803831F1C0F4882371F18036F1F072
:1005500085EC8093BC00FF91EF91BF91AF919F918B
:100560008F917F916F915F914F913F912F910F905C
:100570000FBE0F901F901895883A99F0883B41F76D
:10058000E0913A01F0913B010995E2CF10923F01D1
:10059000DFCF8091BB00E0913C01F0913D010995D6
:1005A000D7CF10923E01ECCF1092BC00D1CFA29FCA
:1005B000B001B39FC001A39F700D811D1124911D37
:1005C000B29F700D811D1124911D0895F894FFCFE5
:1005D000010101010101010101010101010101010B
:0C05E0000101010101FFFFFF000000000D
:00000001FF
