:100000000C943E000C945B000C945B000C945B0021
:100010000C945B000C945B000C945B000C945B00F4
:100020000C945B000C945B000C945B000C945B00E4
:100030000C945B000C945B000C945B000C945B00D4
:100040000C945B000C945B000C945B000C945B00C4
:100050000C945B000C945B000C945B000C945B00B4
:100060000C945B000C945B000C948E020C945B006F
:100070000C945B000C945B000C945B0011241FBE7D
:10008000CFEFD4E0DEBFCDBF11E0A0E0B1E0E2ED04
:10009000F5E002C005900D92A632B107D9F721E034
:1000A000A6E2B1E001C01D92A134B207E1F70E94BF
:1000B000FC000C94E7020C94000090914001E92FA1
:1000C000F0E0E050FF4F808381E0890F983019F015
:1000D0008093400108951092400108954298E09164
:1000E0003F01F0E0E25EFE4F80818093BB00809193
:1000F0003F0191E0980F863019F090933F010895E9
:1001000010923F0108959C01ADE7B0E00E94D80233
:10011000611571058105910509F40895000000003D
:1001200000000000000000000000000000000000CF
:1001300000000000000000000000000000000000BF
:1001400000000000000000000000000000000000AF
:10015000000000000000000000000000000000009F
:10016000000000000000000000000000000000008F
:10017000000000000000000000000000000000007F
:100180000000000000000000000000006150710944
:1001900081099109BDCFE1E2F1E080E026ED809395
:1001A0007C0090917C00906290937C0020937A0078
:1001B00090917A0094FFFCCF9091790091938F5F9A
:1001C000843069F70895CF93DF930E943502C0E031
:1001D000D1E04A81698188810E9444024D816C810D
:1001E0008B810E94440248856F818E810E94440267
:1001F000DF91CF910C94410285B7806885BF85B7A8
:10020000806885BF81E090E00E9483001AB88FEF7C
:100210008BB987B1877087B988B1886F88B984B185
:10022000807E84B985B18F6185B981B18F7181B9C3
:1002300082B1806E82B93A9A42980E9417026EE6A5
:1002400070E08DE590E00E94750280E10E947E02E0
:10025000789440E060E080E00E9459028CE291E0F6
:100260000E94830040E060E084E60E9459028CE234
:1002700091E00E94830040E064E680E00E94590221
:100280008CE291E00E94830044E660E080E00E94FE
:1002900059028CE291E00E94830010E009E1C1E084
:1002A000D0E01A3090F00E94E3000E94CB0010E0F2
:1002B000E6E2F1E030E020E090E081918111B2C00F
:1002C000211105C089B1817023C01F5FF1CF21309A
:1002D00021F489B1869581701BC0223029F489B13F
:1002E00082FB882780F914C0233029F489B183FB6D
:1002F000882780F90DC0243021F489B1829581705E
:1003000007C0253009F04BC089B185FB882780F9EB
:10031000D901A75FBE4F4C91481729F08C93DF019C
:1003200011970C9391E02F5F3F4F2531310529F64E
:10033000992381F1E9E0F1E090E080E020E030E015
:1003400040E0582F6191662339F0BE01082E01C0AC
:10035000660F0A94EAF7462B6781662339F0BE01DF
:10036000052E01C0660F0A94EAF7362B67856623CF
:1003700031F0BE0101C0660F5A95EAF7262B0196AF
:1003800088309105F1F640931E0130931F012093B0
:100390002001429A81E090E00E94830082CF2630C3
:1003A00029F489B186FB882780F9B2CF273029F458
:1003B00089B1881F8827881FABCF283011F486B1F8
:1003C00096CF293011F486B199CF2A3011F486B135
:1003D0009CCF2B3011F486B1E5CF2C3011F486B1CF
:1003E000E8CF2D3011F480B190CF2E3011F480B1D0
:1003F000D9CF2F3011F480B1DCCF203111F483B18B
:1004000062CF213111F483B165CF223111F483B170
:1004100067CF233111F483B16ACF243109F078CF4B
:1004200083B16CCFDF01119781508C937CCF259ADB
:10043000279A2D9A2F9A089530E020E090E02F9887
:10044000AC01022E02C0559547950A94E2F740FF91
:100450000AC02D9A00002F9A00002F5F3F4F2830CE
:10046000310569F708952D98F5CF80E00E941C02B0
:1004700080E00E941C0280E00E941C0280E00C943C
:100480001C028FEF0C941C021F93CF93DF93182F45
:10049000D62FC42F8FEF0E941C02812F0E941C02B6
:1004A0008D2F0E941C028C2FDF91CF911F910C94F5
:1004B0001C021F93CF93DF93C82FD62F142F0E94B7
:1004C0003502412F6D2F8C2F0E944402412F6D2F3A
:1004D0008C2F0E944402412F6D2F8C2F0E944402CA
:1004E000DF91CF911F910C94410290933E01809334
:1004F0003D0170933C0160933B010895F894880F8F
:100500008093BA0085EC8093BC0078940895F894A9
:100510001092BC001092BA00789408951F920F9226
:100520000FB60F9211242F933F934F935F936F93C6
:100530007F938F939F93AF93BF93EF93FF9380919C
:10054000B900887F803831F1C0F4882371F180369A
:10055000F1F085EC8093BC00FF91EF91BF91AF91DA
:100560009F918F917F916F915F914F913F912F91CB
:100570000F900FBE0F901F901895883A99F0883B06
:1005800041F7E0913B01F0913C010995E2CF1092D7
:100590004001DFCF8091BB00E0913D01F0913E0131
:1005A0000995D7CF10923F01ECCF1092BC00D1CF6C
:1005B000A29FB001B39FC001A39F700D811D1124A4
:1005C000911DB29F700D811D1124911D0895F89405
:0205D000FFCF5B
:1005D2000A000014000032000001010101010101C2
:1005E2000101010101010101010101010101FFFFFD
:0605F200FF000000000004
:00000001FF
